{
	"Practice/EventLogger.sol": {
		"EventLogger": {
			"abi": [
				{
					"anonymous": false,
					"inputs": [
						{
							"indexed": false,
							"internalType": "address",
							"name": "sender",
							"type": "address"
						},
						{
							"indexed": false,
							"internalType": "string",
							"name": "message",
							"type": "string"
						}
					],
					"name": "MessageLogged",
					"type": "event"
				},
				{
					"inputs": [
						{
							"internalType": "string",
							"name": "_message",
							"type": "string"
						}
					],
					"name": "logMessage",
					"outputs": [],
					"stateMutability": "nonpayable",
					"type": "function"
				}
			],
			"devdoc": {
				"kind": "dev",
				"methods": {},
				"version": 1
			},
			"evm": {
				"assembly": "    /* \"Practice/EventLogger.sol\":27:238  contract EventLogger{... */\n  mstore(0x40, 0x80)\n  callvalue\n  dup1\n  iszero\n  tag_1\n  jumpi\n  revert(0x00, 0x00)\ntag_1:\n  pop\n  dataSize(sub_0)\n  dup1\n  dataOffset(sub_0)\n  0x00\n  codecopy\n  0x00\n  return\nstop\n\nsub_0: assembly {\n        /* \"Practice/EventLogger.sol\":27:238  contract EventLogger{... */\n      mstore(0x40, 0x80)\n      callvalue\n      dup1\n      iszero\n      tag_1\n      jumpi\n      revert(0x00, 0x00)\n    tag_1:\n      pop\n      jumpi(tag_2, lt(calldatasize, 0x04))\n      shr(0xe0, calldataload(0x00))\n      dup1\n      0x7c990052\n      eq\n      tag_3\n      jumpi\n    tag_2:\n      revert(0x00, 0x00)\n        /* \"Practice/EventLogger.sol\":117:235  function logMessage(string memory _message) public {... */\n    tag_3:\n      tag_4\n      0x04\n      dup1\n      calldatasize\n      sub\n      dup2\n      add\n      swap1\n      tag_5\n      swap2\n      swap1\n      tag_6\n      jump\t// in\n    tag_5:\n      tag_7\n      jump\t// in\n    tag_4:\n      stop\n    tag_7:\n        /* \"Practice/EventLogger.sol\":188:223  MessageLogged(msg.sender, _message) */\n      0xda502b164eb5cfccfa9f947e0fdc1a0bd060adfef2947810b256321c1a74ca41\n        /* \"Practice/EventLogger.sol\":202:212  msg.sender */\n      caller\n        /* \"Practice/EventLogger.sol\":214:222  _message */\n      dup3\n        /* \"Practice/EventLogger.sol\":188:223  MessageLogged(msg.sender, _message) */\n      mload(0x40)\n      tag_9\n      swap3\n      swap2\n      swap1\n      tag_10\n      jump\t// in\n    tag_9:\n      mload(0x40)\n      dup1\n      swap2\n      sub\n      swap1\n      log1\n        /* \"Practice/EventLogger.sol\":117:235  function logMessage(string memory _message) public {... */\n      pop\n      jump\t// out\n        /* \"#utility.yul\":7:82   */\n    tag_11:\n        /* \"#utility.yul\":40:46   */\n      0x00\n        /* \"#utility.yul\":73:75   */\n      0x40\n        /* \"#utility.yul\":67:76   */\n      mload\n        /* \"#utility.yul\":57:76   */\n      swap1\n      pop\n        /* \"#utility.yul\":7:82   */\n      swap1\n      jump\t// out\n        /* \"#utility.yul\":88:205   */\n    tag_12:\n        /* \"#utility.yul\":197:198   */\n      0x00\n        /* \"#utility.yul\":194:195   */\n      0x00\n        /* \"#utility.yul\":187:199   */\n      revert\n        /* \"#utility.yul\":211:328   */\n    tag_13:\n        /* \"#utility.yul\":320:321   */\n      0x00\n        /* \"#utility.yul\":317:318   */\n      0x00\n        /* \"#utility.yul\":310:322   */\n      revert\n        /* \"#utility.yul\":334:451   */\n    tag_14:\n        /* \"#utility.yul\":443:444   */\n      0x00\n        /* \"#utility.yul\":440:441   */\n      0x00\n        /* \"#utility.yul\":433:445   */\n      revert\n        /* \"#utility.yul\":457:574   */\n    tag_15:\n        /* \"#utility.yul\":566:567   */\n      0x00\n        /* \"#utility.yul\":563:564   */\n      0x00\n        /* \"#utility.yul\":556:568   */\n      revert\n        /* \"#utility.yul\":580:682   */\n    tag_16:\n        /* \"#utility.yul\":621:627   */\n      0x00\n        /* \"#utility.yul\":672:674   */\n      0x1f\n        /* \"#utility.yul\":668:675   */\n      not\n        /* \"#utility.yul\":663:665   */\n      0x1f\n        /* \"#utility.yul\":656:661   */\n      dup4\n        /* \"#utility.yul\":652:666   */\n      add\n        /* \"#utility.yul\":648:676   */\n      and\n        /* \"#utility.yul\":638:676   */\n      swap1\n      pop\n        /* \"#utility.yul\":580:682   */\n      swap2\n      swap1\n      pop\n      jump\t// out\n        /* \"#utility.yul\":688:868   */\n    tag_17:\n        /* \"#utility.yul\":736:813   */\n      0x4e487b7100000000000000000000000000000000000000000000000000000000\n        /* \"#utility.yul\":733:734   */\n      0x00\n        /* \"#utility.yul\":726:814   */\n      mstore\n        /* \"#utility.yul\":833:837   */\n      0x41\n        /* \"#utility.yul\":830:831   */\n      0x04\n        /* \"#utility.yul\":823:838   */\n      mstore\n        /* \"#utility.yul\":857:861   */\n      0x24\n        /* \"#utility.yul\":854:855   */\n      0x00\n        /* \"#utility.yul\":847:862   */\n      revert\n        /* \"#utility.yul\":874:1155   */\n    tag_18:\n        /* \"#utility.yul\":957:984   */\n      tag_40\n        /* \"#utility.yul\":979:983   */\n      dup3\n        /* \"#utility.yul\":957:984   */\n      tag_16\n      jump\t// in\n    tag_40:\n        /* \"#utility.yul\":949:955   */\n      dup2\n        /* \"#utility.yul\":945:985   */\n      add\n        /* \"#utility.yul\":1087:1093   */\n      dup2\n        /* \"#utility.yul\":1075:1085   */\n      dup2\n        /* \"#utility.yul\":1072:1094   */\n      lt\n        /* \"#utility.yul\":1051:1069   */\n      0xffffffffffffffff\n        /* \"#utility.yul\":1039:1049   */\n      dup3\n        /* \"#utility.yul\":1036:1070   */\n      gt\n        /* \"#utility.yul\":1033:1095   */\n      or\n        /* \"#utility.yul\":1030:1118   */\n      iszero\n      tag_41\n      jumpi\n        /* \"#utility.yul\":1098:1116   */\n      tag_42\n      tag_17\n      jump\t// in\n    tag_42:\n        /* \"#utility.yul\":1030:1118   */\n    tag_41:\n        /* \"#utility.yul\":1138:1148   */\n      dup1\n        /* \"#utility.yul\":1134:1136   */\n      0x40\n        /* \"#utility.yul\":1127:1149   */\n      mstore\n        /* \"#utility.yul\":917:1155   */\n      pop\n        /* \"#utility.yul\":874:1155   */\n      pop\n      pop\n      jump\t// out\n        /* \"#utility.yul\":1161:1290   */\n    tag_19:\n        /* \"#utility.yul\":1195:1201   */\n      0x00\n        /* \"#utility.yul\":1222:1242   */\n      tag_44\n      tag_11\n      jump\t// in\n    tag_44:\n        /* \"#utility.yul\":1212:1242   */\n      swap1\n      pop\n        /* \"#utility.yul\":1251:1284   */\n      tag_45\n        /* \"#utility.yul\":1279:1283   */\n      dup3\n        /* \"#utility.yul\":1271:1277   */\n      dup3\n        /* \"#utility.yul\":1251:1284   */\n      tag_18\n      jump\t// in\n    tag_45:\n        /* \"#utility.yul\":1161:1290   */\n      swap2\n      swap1\n      pop\n      jump\t// out\n        /* \"#utility.yul\":1296:1604   */\n    tag_20:\n        /* \"#utility.yul\":1358:1362   */\n      0x00\n        /* \"#utility.yul\":1448:1466   */\n      0xffffffffffffffff\n        /* \"#utility.yul\":1440:1446   */\n      dup3\n        /* \"#utility.yul\":1437:1467   */\n      gt\n        /* \"#utility.yul\":1434:1490   */\n      iszero\n      tag_47\n      jumpi\n        /* \"#utility.yul\":1470:1488   */\n      tag_48\n      tag_17\n      jump\t// in\n    tag_48:\n        /* \"#utility.yul\":1434:1490   */\n    tag_47:\n        /* \"#utility.yul\":1508:1537   */\n      tag_49\n        /* \"#utility.yul\":1530:1536   */\n      dup3\n        /* \"#utility.yul\":1508:1537   */\n      tag_16\n      jump\t// in\n    tag_49:\n        /* \"#utility.yul\":1500:1537   */\n      swap1\n      pop\n        /* \"#utility.yul\":1592:1596   */\n      0x20\n        /* \"#utility.yul\":1586:1590   */\n      dup2\n        /* \"#utility.yul\":1582:1597   */\n      add\n        /* \"#utility.yul\":1574:1597   */\n      swap1\n      pop\n        /* \"#utility.yul\":1296:1604   */\n      swap2\n      swap1\n      pop\n      jump\t// out\n        /* \"#utility.yul\":1610:1758   */\n    tag_21:\n        /* \"#utility.yul\":1708:1714   */\n      dup3\n        /* \"#utility.yul\":1703:1706   */\n      dup2\n        /* \"#utility.yul\":1698:1701   */\n      dup4\n        /* \"#utility.yul\":1685:1715   */\n      calldatacopy\n        /* \"#utility.yul\":1749:1750   */\n      0x00\n        /* \"#utility.yul\":1740:1746   */\n      dup4\n        /* \"#utility.yul\":1735:1738   */\n      dup4\n        /* \"#utility.yul\":1731:1747   */\n      add\n        /* \"#utility.yul\":1724:1751   */\n      mstore\n        /* \"#utility.yul\":1610:1758   */\n      pop\n      pop\n      pop\n      jump\t// out\n        /* \"#utility.yul\":1764:2189   */\n    tag_22:\n        /* \"#utility.yul\":1842:1847   */\n      0x00\n        /* \"#utility.yul\":1867:1933   */\n      tag_52\n        /* \"#utility.yul\":1883:1932   */\n      tag_53\n        /* \"#utility.yul\":1925:1931   */\n      dup5\n        /* \"#utility.yul\":1883:1932   */\n      tag_20\n      jump\t// in\n    tag_53:\n        /* \"#utility.yul\":1867:1933   */\n      tag_19\n      jump\t// in\n    tag_52:\n        /* \"#utility.yul\":1858:1933   */\n      swap1\n      pop\n        /* \"#utility.yul\":1956:1962   */\n      dup3\n        /* \"#utility.yul\":1949:1954   */\n      dup2\n        /* \"#utility.yul\":1942:1963   */\n      mstore\n        /* \"#utility.yul\":1994:1998   */\n      0x20\n        /* \"#utility.yul\":1987:1992   */\n      dup2\n        /* \"#utility.yul\":1983:1999   */\n      add\n        /* \"#utility.yul\":2032:2035   */\n      dup5\n        /* \"#utility.yul\":2023:2029   */\n      dup5\n        /* \"#utility.yul\":2018:2021   */\n      dup5\n        /* \"#utility.yul\":2014:2030   */\n      add\n        /* \"#utility.yul\":2011:2036   */\n      gt\n        /* \"#utility.yul\":2008:2120   */\n      iszero\n      tag_54\n      jumpi\n        /* \"#utility.yul\":2039:2118   */\n      tag_55\n      tag_15\n      jump\t// in\n    tag_55:\n        /* \"#utility.yul\":2008:2120   */\n    tag_54:\n        /* \"#utility.yul\":2129:2183   */\n      tag_56\n        /* \"#utility.yul\":2176:2182   */\n      dup5\n        /* \"#utility.yul\":2171:2174   */\n      dup3\n        /* \"#utility.yul\":2166:2169   */\n      dup6\n        /* \"#utility.yul\":2129:2183   */\n      tag_21\n      jump\t// in\n    tag_56:\n        /* \"#utility.yul\":1848:2189   */\n      pop\n        /* \"#utility.yul\":1764:2189   */\n      swap4\n      swap3\n      pop\n      pop\n      pop\n      jump\t// out\n        /* \"#utility.yul\":2209:2549   */\n    tag_23:\n        /* \"#utility.yul\":2265:2270   */\n      0x00\n        /* \"#utility.yul\":2314:2317   */\n      dup3\n        /* \"#utility.yul\":2307:2311   */\n      0x1f\n        /* \"#utility.yul\":2299:2305   */\n      dup4\n        /* \"#utility.yul\":2295:2312   */\n      add\n        /* \"#utility.yul\":2291:2318   */\n      slt\n        /* \"#utility.yul\":2281:2403   */\n      tag_58\n      jumpi\n        /* \"#utility.yul\":2322:2401   */\n      tag_59\n      tag_14\n      jump\t// in\n    tag_59:\n        /* \"#utility.yul\":2281:2403   */\n    tag_58:\n        /* \"#utility.yul\":2439:2445   */\n      dup2\n        /* \"#utility.yul\":2426:2446   */\n      calldataload\n        /* \"#utility.yul\":2464:2543   */\n      tag_60\n        /* \"#utility.yul\":2539:2542   */\n      dup5\n        /* \"#utility.yul\":2531:2537   */\n      dup3\n        /* \"#utility.yul\":2524:2528   */\n      0x20\n        /* \"#utility.yul\":2516:2522   */\n      dup7\n        /* \"#utility.yul\":2512:2529   */\n      add\n        /* \"#utility.yul\":2464:2543   */\n      tag_22\n      jump\t// in\n    tag_60:\n        /* \"#utility.yul\":2455:2543   */\n      swap2\n      pop\n        /* \"#utility.yul\":2271:2549   */\n      pop\n        /* \"#utility.yul\":2209:2549   */\n      swap3\n      swap2\n      pop\n      pop\n      jump\t// out\n        /* \"#utility.yul\":2555:3064   */\n    tag_6:\n        /* \"#utility.yul\":2624:2630   */\n      0x00\n        /* \"#utility.yul\":2673:2675   */\n      0x20\n        /* \"#utility.yul\":2661:2670   */\n      dup3\n        /* \"#utility.yul\":2652:2659   */\n      dup5\n        /* \"#utility.yul\":2648:2671   */\n      sub\n        /* \"#utility.yul\":2644:2676   */\n      slt\n        /* \"#utility.yul\":2641:2760   */\n      iszero\n      tag_62\n      jumpi\n        /* \"#utility.yul\":2679:2758   */\n      tag_63\n      tag_12\n      jump\t// in\n    tag_63:\n        /* \"#utility.yul\":2641:2760   */\n    tag_62:\n        /* \"#utility.yul\":2827:2828   */\n      0x00\n        /* \"#utility.yul\":2816:2825   */\n      dup3\n        /* \"#utility.yul\":2812:2829   */\n      add\n        /* \"#utility.yul\":2799:2830   */\n      calldataload\n        /* \"#utility.yul\":2857:2875   */\n      0xffffffffffffffff\n        /* \"#utility.yul\":2849:2855   */\n      dup2\n        /* \"#utility.yul\":2846:2876   */\n      gt\n        /* \"#utility.yul\":2843:2960   */\n      iszero\n      tag_64\n      jumpi\n        /* \"#utility.yul\":2879:2958   */\n      tag_65\n      tag_13\n      jump\t// in\n    tag_65:\n        /* \"#utility.yul\":2843:2960   */\n    tag_64:\n        /* \"#utility.yul\":2984:3047   */\n      tag_66\n        /* \"#utility.yul\":3039:3046   */\n      dup5\n        /* \"#utility.yul\":3030:3036   */\n      dup3\n        /* \"#utility.yul\":3019:3028   */\n      dup6\n        /* \"#utility.yul\":3015:3037   */\n      add\n        /* \"#utility.yul\":2984:3047   */\n      tag_23\n      jump\t// in\n    tag_66:\n        /* \"#utility.yul\":2974:3047   */\n      swap2\n      pop\n        /* \"#utility.yul\":2770:3057   */\n      pop\n        /* \"#utility.yul\":2555:3064   */\n      swap3\n      swap2\n      pop\n      pop\n      jump\t// out\n        /* \"#utility.yul\":3070:3196   */\n    tag_24:\n        /* \"#utility.yul\":3107:3114   */\n      0x00\n        /* \"#utility.yul\":3147:3189   */\n      0xffffffffffffffffffffffffffffffffffffffff\n        /* \"#utility.yul\":3140:3145   */\n      dup3\n        /* \"#utility.yul\":3136:3190   */\n      and\n        /* \"#utility.yul\":3125:3190   */\n      swap1\n      pop\n        /* \"#utility.yul\":3070:3196   */\n      swap2\n      swap1\n      pop\n      jump\t// out\n        /* \"#utility.yul\":3202:3298   */\n    tag_25:\n        /* \"#utility.yul\":3239:3246   */\n      0x00\n        /* \"#utility.yul\":3268:3292   */\n      tag_69\n        /* \"#utility.yul\":3286:3291   */\n      dup3\n        /* \"#utility.yul\":3268:3292   */\n      tag_24\n      jump\t// in\n    tag_69:\n        /* \"#utility.yul\":3257:3292   */\n      swap1\n      pop\n        /* \"#utility.yul\":3202:3298   */\n      swap2\n      swap1\n      pop\n      jump\t// out\n        /* \"#utility.yul\":3304:3422   */\n    tag_26:\n        /* \"#utility.yul\":3391:3415   */\n      tag_71\n        /* \"#utility.yul\":3409:3414   */\n      dup2\n        /* \"#utility.yul\":3391:3415   */\n      tag_25\n      jump\t// in\n    tag_71:\n        /* \"#utility.yul\":3386:3389   */\n      dup3\n        /* \"#utility.yul\":3379:3416   */\n      mstore\n        /* \"#utility.yul\":3304:3422   */\n      pop\n      pop\n      jump\t// out\n        /* \"#utility.yul\":3428:3527   */\n    tag_27:\n        /* \"#utility.yul\":3480:3486   */\n      0x00\n        /* \"#utility.yul\":3514:3519   */\n      dup2\n        /* \"#utility.yul\":3508:3520   */\n      mload\n        /* \"#utility.yul\":3498:3520   */\n      swap1\n      pop\n        /* \"#utility.yul\":3428:3527   */\n      swap2\n      swap1\n      pop\n      jump\t// out\n        /* \"#utility.yul\":3533:3702   */\n    tag_28:\n        /* \"#utility.yul\":3617:3628   */\n      0x00\n        /* \"#utility.yul\":3651:3657   */\n      dup3\n        /* \"#utility.yul\":3646:3649   */\n      dup3\n        /* \"#utility.yul\":3639:3658   */\n      mstore\n        /* \"#utility.yul\":3691:3695   */\n      0x20\n        /* \"#utility.yul\":3686:3689   */\n      dup3\n        /* \"#utility.yul\":3682:3696   */\n      add\n        /* \"#utility.yul\":3667:3696   */\n      swap1\n      pop\n        /* \"#utility.yul\":3533:3702   */\n      swap3\n      swap2\n      pop\n      pop\n      jump\t// out\n        /* \"#utility.yul\":3708:3847   */\n    tag_29:\n        /* \"#utility.yul\":3797:3803   */\n      dup3\n        /* \"#utility.yul\":3792:3795   */\n      dup2\n        /* \"#utility.yul\":3787:3790   */\n      dup4\n        /* \"#utility.yul\":3781:3804   */\n      mcopy\n        /* \"#utility.yul\":3838:3839   */\n      0x00\n        /* \"#utility.yul\":3829:3835   */\n      dup4\n        /* \"#utility.yul\":3824:3827   */\n      dup4\n        /* \"#utility.yul\":3820:3836   */\n      add\n        /* \"#utility.yul\":3813:3840   */\n      mstore\n        /* \"#utility.yul\":3708:3847   */\n      pop\n      pop\n      pop\n      jump\t// out\n        /* \"#utility.yul\":3853:4230   */\n    tag_30:\n        /* \"#utility.yul\":3941:3944   */\n      0x00\n        /* \"#utility.yul\":3969:4008   */\n      tag_76\n        /* \"#utility.yul\":4002:4007   */\n      dup3\n        /* \"#utility.yul\":3969:4008   */\n      tag_27\n      jump\t// in\n    tag_76:\n        /* \"#utility.yul\":4024:4095   */\n      tag_77\n        /* \"#utility.yul\":4088:4094   */\n      dup2\n        /* \"#utility.yul\":4083:4086   */\n      dup6\n        /* \"#utility.yul\":4024:4095   */\n      tag_28\n      jump\t// in\n    tag_77:\n        /* \"#utility.yul\":4017:4095   */\n      swap4\n      pop\n        /* \"#utility.yul\":4104:4169   */\n      tag_78\n        /* \"#utility.yul\":4162:4168   */\n      dup2\n        /* \"#utility.yul\":4157:4160   */\n      dup6\n        /* \"#utility.yul\":4150:4154   */\n      0x20\n        /* \"#utility.yul\":4143:4148   */\n      dup7\n        /* \"#utility.yul\":4139:4155   */\n      add\n        /* \"#utility.yul\":4104:4169   */\n      tag_29\n      jump\t// in\n    tag_78:\n        /* \"#utility.yul\":4194:4223   */\n      tag_79\n        /* \"#utility.yul\":4216:4222   */\n      dup2\n        /* \"#utility.yul\":4194:4223   */\n      tag_16\n      jump\t// in\n    tag_79:\n        /* \"#utility.yul\":4189:4192   */\n      dup5\n        /* \"#utility.yul\":4185:4224   */\n      add\n        /* \"#utility.yul\":4178:4224   */\n      swap2\n      pop\n        /* \"#utility.yul\":3945:4230   */\n      pop\n        /* \"#utility.yul\":3853:4230   */\n      swap3\n      swap2\n      pop\n      pop\n      jump\t// out\n        /* \"#utility.yul\":4236:4659   */\n    tag_10:\n        /* \"#utility.yul\":4377:4381   */\n      0x00\n        /* \"#utility.yul\":4415:4417   */\n      0x40\n        /* \"#utility.yul\":4404:4413   */\n      dup3\n        /* \"#utility.yul\":4400:4418   */\n      add\n        /* \"#utility.yul\":4392:4418   */\n      swap1\n      pop\n        /* \"#utility.yul\":4428:4499   */\n      tag_81\n        /* \"#utility.yul\":4496:4497   */\n      0x00\n        /* \"#utility.yul\":4485:4494   */\n      dup4\n        /* \"#utility.yul\":4481:4498   */\n      add\n        /* \"#utility.yul\":4472:4478   */\n      dup6\n        /* \"#utility.yul\":4428:4499   */\n      tag_26\n      jump\t// in\n    tag_81:\n        /* \"#utility.yul\":4546:4555   */\n      dup2\n        /* \"#utility.yul\":4540:4544   */\n      dup2\n        /* \"#utility.yul\":4536:4556   */\n      sub\n        /* \"#utility.yul\":4531:4533   */\n      0x20\n        /* \"#utility.yul\":4520:4529   */\n      dup4\n        /* \"#utility.yul\":4516:4534   */\n      add\n        /* \"#utility.yul\":4509:4557   */\n      mstore\n        /* \"#utility.yul\":4574:4652   */\n      tag_82\n        /* \"#utility.yul\":4647:4651   */\n      dup2\n        /* \"#utility.yul\":4638:4644   */\n      dup5\n        /* \"#utility.yul\":4574:4652   */\n      tag_30\n      jump\t// in\n    tag_82:\n        /* \"#utility.yul\":4566:4652   */\n      swap1\n      pop\n        /* \"#utility.yul\":4236:4659   */\n      swap4\n      swap3\n      pop\n      pop\n      pop\n      jump\t// out\n\n    auxdata: 0xa2646970667358221220a6ff4809f307a4210a7d71827005d6192af07babb9b76fd3667e51481b9ade3d64736f6c634300081e0033\n}\n",
				"bytecode": {
					"linkReferences": {},
					"object": "6080604052348015600e575f5ffd5b5061031c8061001c5f395ff3fe608060405234801561000f575f5ffd5b5060043610610029575f3560e01c80637c9900521461002d575b5f5ffd5b610047600480360381019061004291906101d2565b610049565b005b7fda502b164eb5cfccfa9f947e0fdc1a0bd060adfef2947810b256321c1a74ca41338260405161007a9291906102b8565b60405180910390a150565b5f604051905090565b5f5ffd5b5f5ffd5b5f5ffd5b5f5ffd5b5f601f19601f8301169050919050565b7f4e487b71000000000000000000000000000000000000000000000000000000005f52604160045260245ffd5b6100e48261009e565b810181811067ffffffffffffffff82111715610103576101026100ae565b5b80604052505050565b5f610115610085565b905061012182826100db565b919050565b5f67ffffffffffffffff8211156101405761013f6100ae565b5b6101498261009e565b9050602081019050919050565b828183375f83830152505050565b5f61017661017184610126565b61010c565b9050828152602081018484840111156101925761019161009a565b5b61019d848285610156565b509392505050565b5f82601f8301126101b9576101b8610096565b5b81356101c9848260208601610164565b91505092915050565b5f602082840312156101e7576101e661008e565b5b5f82013567ffffffffffffffff81111561020457610203610092565b5b610210848285016101a5565b91505092915050565b5f73ffffffffffffffffffffffffffffffffffffffff82169050919050565b5f61024282610219565b9050919050565b61025281610238565b82525050565b5f81519050919050565b5f82825260208201905092915050565b8281835e5f83830152505050565b5f61028a82610258565b6102948185610262565b93506102a4818560208601610272565b6102ad8161009e565b840191505092915050565b5f6040820190506102cb5f830185610249565b81810360208301526102dd8184610280565b9050939250505056fea2646970667358221220a6ff4809f307a4210a7d71827005d6192af07babb9b76fd3667e51481b9ade3d64736f6c634300081e0033",
					"opcodes": "PUSH1 0x80 PUSH1 0x40 MSTORE CALLVALUE DUP1 ISZERO PUSH1 0xE JUMPI PUSH0 PUSH0 REVERT JUMPDEST POP PUSH2 0x31C DUP1 PUSH2 0x1C PUSH0 CODECOPY PUSH0 RETURN INVALID PUSH1 0x80 PUSH1 0x40 MSTORE CALLVALUE DUP1 ISZERO PUSH2 0xF JUMPI PUSH0 PUSH0 REVERT JUMPDEST POP PUSH1 0x4 CALLDATASIZE LT PUSH2 0x29 JUMPI PUSH0 CALLDATALOAD PUSH1 0xE0 SHR DUP1 PUSH4 0x7C990052 EQ PUSH2 0x2D JUMPI JUMPDEST PUSH0 PUSH0 REVERT JUMPDEST PUSH2 0x47 PUSH1 0x4 DUP1 CALLDATASIZE SUB DUP2 ADD SWAP1 PUSH2 0x42 SWAP2 SWAP1 PUSH2 0x1D2 JUMP JUMPDEST PUSH2 0x49 JUMP JUMPDEST STOP JUMPDEST PUSH32 0xDA502B164EB5CFCCFA9F947E0FDC1A0BD060ADFEF2947810B256321C1A74CA41 CALLER DUP3 PUSH1 0x40 MLOAD PUSH2 0x7A SWAP3 SWAP2 SWAP1 PUSH2 0x2B8 JUMP JUMPDEST PUSH1 0x40 MLOAD DUP1 SWAP2 SUB SWAP1 LOG1 POP JUMP JUMPDEST PUSH0 PUSH1 0x40 MLOAD SWAP1 POP SWAP1 JUMP JUMPDEST PUSH0 PUSH0 REVERT JUMPDEST PUSH0 PUSH0 REVERT JUMPDEST PUSH0 PUSH0 REVERT JUMPDEST PUSH0 PUSH0 REVERT JUMPDEST PUSH0 PUSH1 0x1F NOT PUSH1 0x1F DUP4 ADD AND SWAP1 POP SWAP2 SWAP1 POP JUMP JUMPDEST PUSH32 0x4E487B7100000000000000000000000000000000000000000000000000000000 PUSH0 MSTORE PUSH1 0x41 PUSH1 0x4 MSTORE PUSH1 0x24 PUSH0 REVERT JUMPDEST PUSH2 0xE4 DUP3 PUSH2 0x9E JUMP JUMPDEST DUP2 ADD DUP2 DUP2 LT PUSH8 0xFFFFFFFFFFFFFFFF DUP3 GT OR ISZERO PUSH2 0x103 JUMPI PUSH2 0x102 PUSH2 0xAE JUMP JUMPDEST JUMPDEST DUP1 PUSH1 0x40 MSTORE POP POP POP JUMP JUMPDEST PUSH0 PUSH2 0x115 PUSH2 0x85 JUMP JUMPDEST SWAP1 POP PUSH2 0x121 DUP3 DUP3 PUSH2 0xDB JUMP JUMPDEST SWAP2 SWAP1 POP JUMP JUMPDEST PUSH0 PUSH8 0xFFFFFFFFFFFFFFFF DUP3 GT ISZERO PUSH2 0x140 JUMPI PUSH2 0x13F PUSH2 0xAE JUMP JUMPDEST JUMPDEST PUSH2 0x149 DUP3 PUSH2 0x9E JUMP JUMPDEST SWAP1 POP PUSH1 0x20 DUP2 ADD SWAP1 POP SWAP2 SWAP1 POP JUMP JUMPDEST DUP3 DUP2 DUP4 CALLDATACOPY PUSH0 DUP4 DUP4 ADD MSTORE POP POP POP JUMP JUMPDEST PUSH0 PUSH2 0x176 PUSH2 0x171 DUP5 PUSH2 0x126 JUMP JUMPDEST PUSH2 0x10C JUMP JUMPDEST SWAP1 POP DUP3 DUP2 MSTORE PUSH1 0x20 DUP2 ADD DUP5 DUP5 DUP5 ADD GT ISZERO PUSH2 0x192 JUMPI PUSH2 0x191 PUSH2 0x9A JUMP JUMPDEST JUMPDEST PUSH2 0x19D DUP5 DUP3 DUP6 PUSH2 0x156 JUMP JUMPDEST POP SWAP4 SWAP3 POP POP POP JUMP JUMPDEST PUSH0 DUP3 PUSH1 0x1F DUP4 ADD SLT PUSH2 0x1B9 JUMPI PUSH2 0x1B8 PUSH2 0x96 JUMP JUMPDEST JUMPDEST DUP2 CALLDATALOAD PUSH2 0x1C9 DUP5 DUP3 PUSH1 0x20 DUP7 ADD PUSH2 0x164 JUMP JUMPDEST SWAP2 POP POP SWAP3 SWAP2 POP POP JUMP JUMPDEST PUSH0 PUSH1 0x20 DUP3 DUP5 SUB SLT ISZERO PUSH2 0x1E7 JUMPI PUSH2 0x1E6 PUSH2 0x8E JUMP JUMPDEST JUMPDEST PUSH0 DUP3 ADD CALLDATALOAD PUSH8 0xFFFFFFFFFFFFFFFF DUP2 GT ISZERO PUSH2 0x204 JUMPI PUSH2 0x203 PUSH2 0x92 JUMP JUMPDEST JUMPDEST PUSH2 0x210 DUP5 DUP3 DUP6 ADD PUSH2 0x1A5 JUMP JUMPDEST SWAP2 POP POP SWAP3 SWAP2 POP POP JUMP JUMPDEST PUSH0 PUSH20 0xFFFFFFFFFFFFFFFFFFFFFFFFFFFFFFFFFFFFFFFF DUP3 AND SWAP1 POP SWAP2 SWAP1 POP JUMP JUMPDEST PUSH0 PUSH2 0x242 DUP3 PUSH2 0x219 JUMP JUMPDEST SWAP1 POP SWAP2 SWAP1 POP JUMP JUMPDEST PUSH2 0x252 DUP2 PUSH2 0x238 JUMP JUMPDEST DUP3 MSTORE POP POP JUMP JUMPDEST PUSH0 DUP2 MLOAD SWAP1 POP SWAP2 SWAP1 POP JUMP JUMPDEST PUSH0 DUP3 DUP3 MSTORE PUSH1 0x20 DUP3 ADD SWAP1 POP SWAP3 SWAP2 POP POP JUMP JUMPDEST DUP3 DUP2 DUP4 MCOPY PUSH0 DUP4 DUP4 ADD MSTORE POP POP POP JUMP JUMPDEST PUSH0 PUSH2 0x28A DUP3 PUSH2 0x258 JUMP JUMPDEST PUSH2 0x294 DUP2 DUP6 PUSH2 0x262 JUMP JUMPDEST SWAP4 POP PUSH2 0x2A4 DUP2 DUP6 PUSH1 0x20 DUP7 ADD PUSH2 0x272 JUMP JUMPDEST PUSH2 0x2AD DUP2 PUSH2 0x9E JUMP JUMPDEST DUP5 ADD SWAP2 POP POP SWAP3 SWAP2 POP POP JUMP JUMPDEST PUSH0 PUSH1 0x40 DUP3 ADD SWAP1 POP PUSH2 0x2CB PUSH0 DUP4 ADD DUP6 PUSH2 0x249 JUMP JUMPDEST DUP2 DUP2 SUB PUSH1 0x20 DUP4 ADD MSTORE PUSH2 0x2DD DUP2 DUP5 PUSH2 0x280 JUMP JUMPDEST SWAP1 POP SWAP4 SWAP3 POP POP POP JUMP INVALID LOG2 PUSH5 0x6970667358 0x22 SLT KECCAK256 0xA6 SELFDESTRUCT BASEFEE MULMOD RETURN SMOD LOG4 0x21 EXP PUSH30 0x71827005D6192AF07BABB9B76FD3667E51481B9ADE3D64736F6C63430008 0x1E STOP CALLER "
				},
				"gasEstimates": {
					"creation": {
						"codeDepositCost": "159200",
						"executionCost": "200",
						"totalCost": "159400"
					},
					"external": {
						"logMessage(string)": "infinite"
					}
				},
				"methodIdentifiers": {
					"logMessage(string)": "7c990052"
				}
			},
			"storageLayout": {
				"storage": [],
				"types": null
			},
			"userdoc": {
				"kind": "user",
				"methods": {},
				"version": 1
			}
		}
	}
}