{
	"data": {
		"bytecode": {
			"linkReferences": {},
			"object": "6080604052610118600160146101000a81548161ffff021916908361ffff160217905550348015602d575f5ffd5b503360015f6101000a81548173ffffffffffffffffffffffffffffffffffffffff021916908373ffffffffffffffffffffffffffffffffffffffff160217905550610e598061007b5f395ff3fe608060405234801561000f575f5ffd5b506004361061007b575f3560e01c806358bfa4ab1161005957806358bfa4ab146100fd5780636eb10797146101195780638da5cb5b146101375780639d054b1c146101555761007b565b806305a1b4a91461007f5780630cbc3dc4146100b0578063112f54e3146100cc575b5f5ffd5b6100996004803603810190610094919061069e565b610185565b6040516100a792919061075b565b60405180910390f35b6100ca60048036038101906100c591906108b5565b610244565b005b6100e660048036038101906100e1919061069e565b610336565b6040516100f492919061075b565b60405180910390f35b61011760048036038101906101129190610933565b6104d0565b005b61012161057f565b60405161012e919061096d565b60405180910390f35b61013f610593565b60405161014c9190610995565b60405180910390f35b61016f600480360381019061016a91906109ae565b6105b8565b60405161017c91906109d9565b60405180910390f35b5f602052815f5260405f20818154811061019d575f80fd5b905f5260205f2090600202015f9150915050805f0180546101bd90610a1f565b80601f01602080910402602001604051908101604052809291908181526020018280546101e990610a1f565b80156102345780601f1061020b57610100808354040283529160200191610234565b820191905f5260205f20905b81548152906001019060200180831161021757829003601f168201915b5050505050908060010154905082565b600160149054906101000a900461ffff1661ffff168151111561029c576040517f08c379a000000000000000000000000000000000000000000000000000000000815260040161029390610a99565b60405180910390fd5b5f5f3373ffffffffffffffffffffffffffffffffffffffff1673ffffffffffffffffffffffffffffffffffffffff1681526020019081526020015f20604051806040016040528083815260200142815250908060018154018082558091505060019003905f5260205f2090600202015f909190919091505f820151815f0190816103269190610c57565b5060208201518160010155505050565b60605f5f5f8573ffffffffffffffffffffffffffffffffffffffff1673ffffffffffffffffffffffffffffffffffffffff1681526020019081526020015f208054905083106103ba576040517f08c379a00000000000000000000000000000000000000000000000000000000081526004016103b190610d70565b60405180910390fd5b5f5f5f8673ffffffffffffffffffffffffffffffffffffffff1673ffffffffffffffffffffffffffffffffffffffff1681526020019081526020015f20848154811061040957610408610d8e565b5b905f5260205f2090600202016040518060400160405290815f8201805461042f90610a1f565b80601f016020809104026020016040519081016040528092919081815260200182805461045b90610a1f565b80156104a65780601f1061047d576101008083540402835291602001916104a6565b820191905f5260205f20905b81548152906001019060200180831161048957829003601f168201915b505050505081526020016001820154815250509050805f0151816020015192509250509250929050565b60015f9054906101000a900473ffffffffffffffffffffffffffffffffffffffff1673ffffffffffffffffffffffffffffffffffffffff163373ffffffffffffffffffffffffffffffffffffffff161461055f576040517f08c379a000000000000000000000000000000000000000000000000000000000815260040161055690610e05565b60405180910390fd5b80600160146101000a81548161ffff021916908361ffff16021790555050565b600160149054906101000a900461ffff1681565b60015f9054906101000a900473ffffffffffffffffffffffffffffffffffffffff1681565b5f5f5f8373ffffffffffffffffffffffffffffffffffffffff1673ffffffffffffffffffffffffffffffffffffffff1681526020019081526020015f20805490509050919050565b5f604051905090565b5f5ffd5b5f5ffd5b5f73ffffffffffffffffffffffffffffffffffffffff82169050919050565b5f61063a82610611565b9050919050565b61064a81610630565b8114610654575f5ffd5b50565b5f8135905061066581610641565b92915050565b5f819050919050565b61067d8161066b565b8114610687575f5ffd5b50565b5f8135905061069881610674565b92915050565b5f5f604083850312156106b4576106b3610609565b5b5f6106c185828601610657565b92505060206106d28582860161068a565b9150509250929050565b5f81519050919050565b5f82825260208201905092915050565b8281835e5f83830152505050565b5f601f19601f8301169050919050565b5f61071e826106dc565b61072881856106e6565b93506107388185602086016106f6565b61074181610704565b840191505092915050565b6107558161066b565b82525050565b5f6040820190508181035f8301526107738185610714565b9050610782602083018461074c565b9392505050565b5f5ffd5b5f5ffd5b7f4e487b71000000000000000000000000000000000000000000000000000000005f52604160045260245ffd5b6107c782610704565b810181811067ffffffffffffffff821117156107e6576107e5610791565b5b80604052505050565b5f6107f8610600565b905061080482826107be565b919050565b5f67ffffffffffffffff82111561082357610822610791565b5b61082c82610704565b9050602081019050919050565b828183375f83830152505050565b5f61085961085484610809565b6107ef565b9050828152602081018484840111156108755761087461078d565b5b610880848285610839565b509392505050565b5f82601f83011261089c5761089b610789565b5b81356108ac848260208601610847565b91505092915050565b5f602082840312156108ca576108c9610609565b5b5f82013567ffffffffffffffff8111156108e7576108e661060d565b5b6108f384828501610888565b91505092915050565b5f61ffff82169050919050565b610912816108fc565b811461091c575f5ffd5b50565b5f8135905061092d81610909565b92915050565b5f6020828403121561094857610947610609565b5b5f6109558482850161091f565b91505092915050565b610967816108fc565b82525050565b5f6020820190506109805f83018461095e565b92915050565b61098f81610630565b82525050565b5f6020820190506109a85f830184610986565b92915050565b5f602082840312156109c3576109c2610609565b5b5f6109d084828501610657565b91505092915050565b5f6020820190506109ec5f83018461074c565b92915050565b7f4e487b71000000000000000000000000000000000000000000000000000000005f52602260045260245ffd5b5f6002820490506001821680610a3657607f821691505b602082108103610a4957610a486109f2565b5b50919050565b7f547765657420746f6f206c6f6e672100000000000000000000000000000000005f82015250565b5f610a83600f836106e6565b9150610a8e82610a4f565b602082019050919050565b5f6020820190508181035f830152610ab081610a77565b9050919050565b5f819050815f5260205f209050919050565b5f6020601f8301049050919050565b5f82821b905092915050565b5f60088302610b137fffffffffffffffffffffffffffffffffffffffffffffffffffffffffffffffff82610ad8565b610b1d8683610ad8565b95508019841693508086168417925050509392505050565b5f819050919050565b5f610b58610b53610b4e8461066b565b610b35565b61066b565b9050919050565b5f819050919050565b610b7183610b3e565b610b85610b7d82610b5f565b848454610ae4565b825550505050565b5f5f905090565b610b9c610b8d565b610ba7818484610b68565b505050565b5b81811015610bca57610bbf5f82610b94565b600181019050610bad565b5050565b601f821115610c0f57610be081610ab7565b610be984610ac9565b81016020851015610bf8578190505b610c0c610c0485610ac9565b830182610bac565b50505b505050565b5f82821c905092915050565b5f610c2f5f1984600802610c14565b1980831691505092915050565b5f610c478383610c20565b9150826002028217905092915050565b610c60826106dc565b67ffffffffffffffff811115610c7957610c78610791565b5b610c838254610a1f565b610c8e828285610bce565b5f60209050601f831160018114610cbf575f8415610cad578287015190505b610cb78582610c3c565b865550610d1e565b601f198416610ccd86610ab7565b5f5b82811015610cf457848901518255600182019150602085019450602081019050610ccf565b86831015610d115784890151610d0d601f891682610c20565b8355505b6001600288020188555050505b505050505050565b7f496e76616c696420747765657420696e646578210000000000000000000000005f82015250565b5f610d5a6014836106e6565b9150610d6582610d26565b602082019050919050565b5f6020820190508181035f830152610d8781610d4e565b9050919050565b7f4e487b71000000000000000000000000000000000000000000000000000000005f52603260045260245ffd5b7f594f5520415245204e4f5420544845204f574e455221000000000000000000005f82015250565b5f610def6016836106e6565b9150610dfa82610dbb565b602082019050919050565b5f6020820190508181035f830152610e1c81610de3565b905091905056fea26469706673582212202f4d2746be0bc2363fe1bd1d559142a530ca7a3efe7fc0d20266cb90dac2fa9164736f6c634300081e0033",
			"opcodes": "PUSH1 0x80 PUSH1 0x40 MSTORE PUSH2 0x118 PUSH1 0x1 PUSH1 0x14 PUSH2 0x100 EXP DUP2 SLOAD DUP2 PUSH2 0xFFFF MUL NOT AND SWAP1 DUP4 PUSH2 0xFFFF AND MUL OR SWAP1 SSTORE POP CALLVALUE DUP1 ISZERO PUSH1 0x2D JUMPI PUSH0 PUSH0 REVERT JUMPDEST POP CALLER PUSH1 0x1 PUSH0 PUSH2 0x100 EXP DUP2 SLOAD DUP2 PUSH20 0xFFFFFFFFFFFFFFFFFFFFFFFFFFFFFFFFFFFFFFFF MUL NOT AND SWAP1 DUP4 PUSH20 0xFFFFFFFFFFFFFFFFFFFFFFFFFFFFFFFFFFFFFFFF AND MUL OR SWAP1 SSTORE POP PUSH2 0xE59 DUP1 PUSH2 0x7B PUSH0 CODECOPY PUSH0 RETURN INVALID PUSH1 0x80 PUSH1 0x40 MSTORE CALLVALUE DUP1 ISZERO PUSH2 0xF JUMPI PUSH0 PUSH0 REVERT JUMPDEST POP PUSH1 0x4 CALLDATASIZE LT PUSH2 0x7B JUMPI PUSH0 CALLDATALOAD PUSH1 0xE0 SHR DUP1 PUSH4 0x58BFA4AB GT PUSH2 0x59 JUMPI DUP1 PUSH4 0x58BFA4AB EQ PUSH2 0xFD JUMPI DUP1 PUSH4 0x6EB10797 EQ PUSH2 0x119 JUMPI DUP1 PUSH4 0x8DA5CB5B EQ PUSH2 0x137 JUMPI DUP1 PUSH4 0x9D054B1C EQ PUSH2 0x155 JUMPI PUSH2 0x7B JUMP JUMPDEST DUP1 PUSH4 0x5A1B4A9 EQ PUSH2 0x7F JUMPI DUP1 PUSH4 0xCBC3DC4 EQ PUSH2 0xB0 JUMPI DUP1 PUSH4 0x112F54E3 EQ PUSH2 0xCC JUMPI JUMPDEST PUSH0 PUSH0 REVERT JUMPDEST PUSH2 0x99 PUSH1 0x4 DUP1 CALLDATASIZE SUB DUP2 ADD SWAP1 PUSH2 0x94 SWAP2 SWAP1 PUSH2 0x69E JUMP JUMPDEST PUSH2 0x185 JUMP JUMPDEST PUSH1 0x40 MLOAD PUSH2 0xA7 SWAP3 SWAP2 SWAP1 PUSH2 0x75B JUMP JUMPDEST PUSH1 0x40 MLOAD DUP1 SWAP2 SUB SWAP1 RETURN JUMPDEST PUSH2 0xCA PUSH1 0x4 DUP1 CALLDATASIZE SUB DUP2 ADD SWAP1 PUSH2 0xC5 SWAP2 SWAP1 PUSH2 0x8B5 JUMP JUMPDEST PUSH2 0x244 JUMP JUMPDEST STOP JUMPDEST PUSH2 0xE6 PUSH1 0x4 DUP1 CALLDATASIZE SUB DUP2 ADD SWAP1 PUSH2 0xE1 SWAP2 SWAP1 PUSH2 0x69E JUMP JUMPDEST PUSH2 0x336 JUMP JUMPDEST PUSH1 0x40 MLOAD PUSH2 0xF4 SWAP3 SWAP2 SWAP1 PUSH2 0x75B JUMP JUMPDEST PUSH1 0x40 MLOAD DUP1 SWAP2 SUB SWAP1 RETURN JUMPDEST PUSH2 0x117 PUSH1 0x4 DUP1 CALLDATASIZE SUB DUP2 ADD SWAP1 PUSH2 0x112 SWAP2 SWAP1 PUSH2 0x933 JUMP JUMPDEST PUSH2 0x4D0 JUMP JUMPDEST STOP JUMPDEST PUSH2 0x121 PUSH2 0x57F JUMP JUMPDEST PUSH1 0x40 MLOAD PUSH2 0x12E SWAP2 SWAP1 PUSH2 0x96D JUMP JUMPDEST PUSH1 0x40 MLOAD DUP1 SWAP2 SUB SWAP1 RETURN JUMPDEST PUSH2 0x13F PUSH2 0x593 JUMP JUMPDEST PUSH1 0x40 MLOAD PUSH2 0x14C SWAP2 SWAP1 PUSH2 0x995 JUMP JUMPDEST PUSH1 0x40 MLOAD DUP1 SWAP2 SUB SWAP1 RETURN JUMPDEST PUSH2 0x16F PUSH1 0x4 DUP1 CALLDATASIZE SUB DUP2 ADD SWAP1 PUSH2 0x16A SWAP2 SWAP1 PUSH2 0x9AE JUMP JUMPDEST PUSH2 0x5B8 JUMP JUMPDEST PUSH1 0x40 MLOAD PUSH2 0x17C SWAP2 SWAP1 PUSH2 0x9D9 JUMP JUMPDEST PUSH1 0x40 MLOAD DUP1 SWAP2 SUB SWAP1 RETURN JUMPDEST PUSH0 PUSH1 0x20 MSTORE DUP2 PUSH0 MSTORE PUSH1 0x40 PUSH0 KECCAK256 DUP2 DUP2 SLOAD DUP2 LT PUSH2 0x19D JUMPI PUSH0 DUP1 REVERT JUMPDEST SWAP1 PUSH0 MSTORE PUSH1 0x20 PUSH0 KECCAK256 SWAP1 PUSH1 0x2 MUL ADD PUSH0 SWAP2 POP SWAP2 POP POP DUP1 PUSH0 ADD DUP1 SLOAD PUSH2 0x1BD SWAP1 PUSH2 0xA1F JUMP JUMPDEST DUP1 PUSH1 0x1F ADD PUSH1 0x20 DUP1 SWAP2 DIV MUL PUSH1 0x20 ADD PUSH1 0x40 MLOAD SWAP1 DUP2 ADD PUSH1 0x40 MSTORE DUP1 SWAP3 SWAP2 SWAP1 DUP2 DUP2 MSTORE PUSH1 0x20 ADD DUP3 DUP1 SLOAD PUSH2 0x1E9 SWAP1 PUSH2 0xA1F JUMP JUMPDEST DUP1 ISZERO PUSH2 0x234 JUMPI DUP1 PUSH1 0x1F LT PUSH2 0x20B JUMPI PUSH2 0x100 DUP1 DUP4 SLOAD DIV MUL DUP4 MSTORE SWAP2 PUSH1 0x20 ADD SWAP2 PUSH2 0x234 JUMP JUMPDEST DUP3 ADD SWAP2 SWAP1 PUSH0 MSTORE PUSH1 0x20 PUSH0 KECCAK256 SWAP1 JUMPDEST DUP2 SLOAD DUP2 MSTORE SWAP1 PUSH1 0x1 ADD SWAP1 PUSH1 0x20 ADD DUP1 DUP4 GT PUSH2 0x217 JUMPI DUP3 SWAP1 SUB PUSH1 0x1F AND DUP3 ADD SWAP2 JUMPDEST POP POP POP POP POP SWAP1 DUP1 PUSH1 0x1 ADD SLOAD SWAP1 POP DUP3 JUMP JUMPDEST PUSH1 0x1 PUSH1 0x14 SWAP1 SLOAD SWAP1 PUSH2 0x100 EXP SWAP1 DIV PUSH2 0xFFFF AND PUSH2 0xFFFF AND DUP2 MLOAD GT ISZERO PUSH2 0x29C JUMPI PUSH1 0x40 MLOAD PUSH32 0x8C379A000000000000000000000000000000000000000000000000000000000 DUP2 MSTORE PUSH1 0x4 ADD PUSH2 0x293 SWAP1 PUSH2 0xA99 JUMP JUMPDEST PUSH1 0x40 MLOAD DUP1 SWAP2 SUB SWAP1 REVERT JUMPDEST PUSH0 PUSH0 CALLER PUSH20 0xFFFFFFFFFFFFFFFFFFFFFFFFFFFFFFFFFFFFFFFF AND PUSH20 0xFFFFFFFFFFFFFFFFFFFFFFFFFFFFFFFFFFFFFFFF AND DUP2 MSTORE PUSH1 0x20 ADD SWAP1 DUP2 MSTORE PUSH1 0x20 ADD PUSH0 KECCAK256 PUSH1 0x40 MLOAD DUP1 PUSH1 0x40 ADD PUSH1 0x40 MSTORE DUP1 DUP4 DUP2 MSTORE PUSH1 0x20 ADD TIMESTAMP DUP2 MSTORE POP SWAP1 DUP1 PUSH1 0x1 DUP2 SLOAD ADD DUP1 DUP3 SSTORE DUP1 SWAP2 POP POP PUSH1 0x1 SWAP1 SUB SWAP1 PUSH0 MSTORE PUSH1 0x20 PUSH0 KECCAK256 SWAP1 PUSH1 0x2 MUL ADD PUSH0 SWAP1 SWAP2 SWAP1 SWAP2 SWAP1 SWAP2 POP PUSH0 DUP3 ADD MLOAD DUP2 PUSH0 ADD SWAP1 DUP2 PUSH2 0x326 SWAP2 SWAP1 PUSH2 0xC57 JUMP JUMPDEST POP PUSH1 0x20 DUP3 ADD MLOAD DUP2 PUSH1 0x1 ADD SSTORE POP POP POP JUMP JUMPDEST PUSH1 0x60 PUSH0 PUSH0 PUSH0 DUP6 PUSH20 0xFFFFFFFFFFFFFFFFFFFFFFFFFFFFFFFFFFFFFFFF AND PUSH20 0xFFFFFFFFFFFFFFFFFFFFFFFFFFFFFFFFFFFFFFFF AND DUP2 MSTORE PUSH1 0x20 ADD SWAP1 DUP2 MSTORE PUSH1 0x20 ADD PUSH0 KECCAK256 DUP1 SLOAD SWAP1 POP DUP4 LT PUSH2 0x3BA JUMPI PUSH1 0x40 MLOAD PUSH32 0x8C379A000000000000000000000000000000000000000000000000000000000 DUP2 MSTORE PUSH1 0x4 ADD PUSH2 0x3B1 SWAP1 PUSH2 0xD70 JUMP JUMPDEST PUSH1 0x40 MLOAD DUP1 SWAP2 SUB SWAP1 REVERT JUMPDEST PUSH0 PUSH0 PUSH0 DUP7 PUSH20 0xFFFFFFFFFFFFFFFFFFFFFFFFFFFFFFFFFFFFFFFF AND PUSH20 0xFFFFFFFFFFFFFFFFFFFFFFFFFFFFFFFFFFFFFFFF AND DUP2 MSTORE PUSH1 0x20 ADD SWAP1 DUP2 MSTORE PUSH1 0x20 ADD PUSH0 KECCAK256 DUP5 DUP2 SLOAD DUP2 LT PUSH2 0x409 JUMPI PUSH2 0x408 PUSH2 0xD8E JUMP JUMPDEST JUMPDEST SWAP1 PUSH0 MSTORE PUSH1 0x20 PUSH0 KECCAK256 SWAP1 PUSH1 0x2 MUL ADD PUSH1 0x40 MLOAD DUP1 PUSH1 0x40 ADD PUSH1 0x40 MSTORE SWAP1 DUP2 PUSH0 DUP3 ADD DUP1 SLOAD PUSH2 0x42F SWAP1 PUSH2 0xA1F JUMP JUMPDEST DUP1 PUSH1 0x1F ADD PUSH1 0x20 DUP1 SWAP2 DIV MUL PUSH1 0x20 ADD PUSH1 0x40 MLOAD SWAP1 DUP2 ADD PUSH1 0x40 MSTORE DUP1 SWAP3 SWAP2 SWAP1 DUP2 DUP2 MSTORE PUSH1 0x20 ADD DUP3 DUP1 SLOAD PUSH2 0x45B SWAP1 PUSH2 0xA1F JUMP JUMPDEST DUP1 ISZERO PUSH2 0x4A6 JUMPI DUP1 PUSH1 0x1F LT PUSH2 0x47D JUMPI PUSH2 0x100 DUP1 DUP4 SLOAD DIV MUL DUP4 MSTORE SWAP2 PUSH1 0x20 ADD SWAP2 PUSH2 0x4A6 JUMP JUMPDEST DUP3 ADD SWAP2 SWAP1 PUSH0 MSTORE PUSH1 0x20 PUSH0 KECCAK256 SWAP1 JUMPDEST DUP2 SLOAD DUP2 MSTORE SWAP1 PUSH1 0x1 ADD SWAP1 PUSH1 0x20 ADD DUP1 DUP4 GT PUSH2 0x489 JUMPI DUP3 SWAP1 SUB PUSH1 0x1F AND DUP3 ADD SWAP2 JUMPDEST POP POP POP POP POP DUP2 MSTORE PUSH1 0x20 ADD PUSH1 0x1 DUP3 ADD SLOAD DUP2 MSTORE POP POP SWAP1 POP DUP1 PUSH0 ADD MLOAD DUP2 PUSH1 0x20 ADD MLOAD SWAP3 POP SWAP3 POP POP SWAP3 POP SWAP3 SWAP1 POP JUMP JUMPDEST PUSH1 0x1 PUSH0 SWAP1 SLOAD SWAP1 PUSH2 0x100 EXP SWAP1 DIV PUSH20 0xFFFFFFFFFFFFFFFFFFFFFFFFFFFFFFFFFFFFFFFF AND PUSH20 0xFFFFFFFFFFFFFFFFFFFFFFFFFFFFFFFFFFFFFFFF AND CALLER PUSH20 0xFFFFFFFFFFFFFFFFFFFFFFFFFFFFFFFFFFFFFFFF AND EQ PUSH2 0x55F JUMPI PUSH1 0x40 MLOAD PUSH32 0x8C379A000000000000000000000000000000000000000000000000000000000 DUP2 MSTORE PUSH1 0x4 ADD PUSH2 0x556 SWAP1 PUSH2 0xE05 JUMP JUMPDEST PUSH1 0x40 MLOAD DUP1 SWAP2 SUB SWAP1 REVERT JUMPDEST DUP1 PUSH1 0x1 PUSH1 0x14 PUSH2 0x100 EXP DUP2 SLOAD DUP2 PUSH2 0xFFFF MUL NOT AND SWAP1 DUP4 PUSH2 0xFFFF AND MUL OR SWAP1 SSTORE POP POP JUMP JUMPDEST PUSH1 0x1 PUSH1 0x14 SWAP1 SLOAD SWAP1 PUSH2 0x100 EXP SWAP1 DIV PUSH2 0xFFFF AND DUP2 JUMP JUMPDEST PUSH1 0x1 PUSH0 SWAP1 SLOAD SWAP1 PUSH2 0x100 EXP SWAP1 DIV PUSH20 0xFFFFFFFFFFFFFFFFFFFFFFFFFFFFFFFFFFFFFFFF AND DUP2 JUMP JUMPDEST PUSH0 PUSH0 PUSH0 DUP4 PUSH20 0xFFFFFFFFFFFFFFFFFFFFFFFFFFFFFFFFFFFFFFFF AND PUSH20 0xFFFFFFFFFFFFFFFFFFFFFFFFFFFFFFFFFFFFFFFF AND DUP2 MSTORE PUSH1 0x20 ADD SWAP1 DUP2 MSTORE PUSH1 0x20 ADD PUSH0 KECCAK256 DUP1 SLOAD SWAP1 POP SWAP1 POP SWAP2 SWAP1 POP JUMP JUMPDEST PUSH0 PUSH1 0x40 MLOAD SWAP1 POP SWAP1 JUMP JUMPDEST PUSH0 PUSH0 REVERT JUMPDEST PUSH0 PUSH0 REVERT JUMPDEST PUSH0 PUSH20 0xFFFFFFFFFFFFFFFFFFFFFFFFFFFFFFFFFFFFFFFF DUP3 AND SWAP1 POP SWAP2 SWAP1 POP JUMP JUMPDEST PUSH0 PUSH2 0x63A DUP3 PUSH2 0x611 JUMP JUMPDEST SWAP1 POP SWAP2 SWAP1 POP JUMP JUMPDEST PUSH2 0x64A DUP2 PUSH2 0x630 JUMP JUMPDEST DUP2 EQ PUSH2 0x654 JUMPI PUSH0 PUSH0 REVERT JUMPDEST POP JUMP JUMPDEST PUSH0 DUP2 CALLDATALOAD SWAP1 POP PUSH2 0x665 DUP2 PUSH2 0x641 JUMP JUMPDEST SWAP3 SWAP2 POP POP JUMP JUMPDEST PUSH0 DUP2 SWAP1 POP SWAP2 SWAP1 POP JUMP JUMPDEST PUSH2 0x67D DUP2 PUSH2 0x66B JUMP JUMPDEST DUP2 EQ PUSH2 0x687 JUMPI PUSH0 PUSH0 REVERT JUMPDEST POP JUMP JUMPDEST PUSH0 DUP2 CALLDATALOAD SWAP1 POP PUSH2 0x698 DUP2 PUSH2 0x674 JUMP JUMPDEST SWAP3 SWAP2 POP POP JUMP JUMPDEST PUSH0 PUSH0 PUSH1 0x40 DUP4 DUP6 SUB SLT ISZERO PUSH2 0x6B4 JUMPI PUSH2 0x6B3 PUSH2 0x609 JUMP JUMPDEST JUMPDEST PUSH0 PUSH2 0x6C1 DUP6 DUP3 DUP7 ADD PUSH2 0x657 JUMP JUMPDEST SWAP3 POP POP PUSH1 0x20 PUSH2 0x6D2 DUP6 DUP3 DUP7 ADD PUSH2 0x68A JUMP JUMPDEST SWAP2 POP POP SWAP3 POP SWAP3 SWAP1 POP JUMP JUMPDEST PUSH0 DUP2 MLOAD SWAP1 POP SWAP2 SWAP1 POP JUMP JUMPDEST PUSH0 DUP3 DUP3 MSTORE PUSH1 0x20 DUP3 ADD SWAP1 POP SWAP3 SWAP2 POP POP JUMP JUMPDEST DUP3 DUP2 DUP4 MCOPY PUSH0 DUP4 DUP4 ADD MSTORE POP POP POP JUMP JUMPDEST PUSH0 PUSH1 0x1F NOT PUSH1 0x1F DUP4 ADD AND SWAP1 POP SWAP2 SWAP1 POP JUMP JUMPDEST PUSH0 PUSH2 0x71E DUP3 PUSH2 0x6DC JUMP JUMPDEST PUSH2 0x728 DUP2 DUP6 PUSH2 0x6E6 JUMP JUMPDEST SWAP4 POP PUSH2 0x738 DUP2 DUP6 PUSH1 0x20 DUP7 ADD PUSH2 0x6F6 JUMP JUMPDEST PUSH2 0x741 DUP2 PUSH2 0x704 JUMP JUMPDEST DUP5 ADD SWAP2 POP POP SWAP3 SWAP2 POP POP JUMP JUMPDEST PUSH2 0x755 DUP2 PUSH2 0x66B JUMP JUMPDEST DUP3 MSTORE POP POP JUMP JUMPDEST PUSH0 PUSH1 0x40 DUP3 ADD SWAP1 POP DUP2 DUP2 SUB PUSH0 DUP4 ADD MSTORE PUSH2 0x773 DUP2 DUP6 PUSH2 0x714 JUMP JUMPDEST SWAP1 POP PUSH2 0x782 PUSH1 0x20 DUP4 ADD DUP5 PUSH2 0x74C JUMP JUMPDEST SWAP4 SWAP3 POP POP POP JUMP JUMPDEST PUSH0 PUSH0 REVERT JUMPDEST PUSH0 PUSH0 REVERT JUMPDEST PUSH32 0x4E487B7100000000000000000000000000000000000000000000000000000000 PUSH0 MSTORE PUSH1 0x41 PUSH1 0x4 MSTORE PUSH1 0x24 PUSH0 REVERT JUMPDEST PUSH2 0x7C7 DUP3 PUSH2 0x704 JUMP JUMPDEST DUP2 ADD DUP2 DUP2 LT PUSH8 0xFFFFFFFFFFFFFFFF DUP3 GT OR ISZERO PUSH2 0x7E6 JUMPI PUSH2 0x7E5 PUSH2 0x791 JUMP JUMPDEST JUMPDEST DUP1 PUSH1 0x40 MSTORE POP POP POP JUMP JUMPDEST PUSH0 PUSH2 0x7F8 PUSH2 0x600 JUMP JUMPDEST SWAP1 POP PUSH2 0x804 DUP3 DUP3 PUSH2 0x7BE JUMP JUMPDEST SWAP2 SWAP1 POP JUMP JUMPDEST PUSH0 PUSH8 0xFFFFFFFFFFFFFFFF DUP3 GT ISZERO PUSH2 0x823 JUMPI PUSH2 0x822 PUSH2 0x791 JUMP JUMPDEST JUMPDEST PUSH2 0x82C DUP3 PUSH2 0x704 JUMP JUMPDEST SWAP1 POP PUSH1 0x20 DUP2 ADD SWAP1 POP SWAP2 SWAP1 POP JUMP JUMPDEST DUP3 DUP2 DUP4 CALLDATACOPY PUSH0 DUP4 DUP4 ADD MSTORE POP POP POP JUMP JUMPDEST PUSH0 PUSH2 0x859 PUSH2 0x854 DUP5 PUSH2 0x809 JUMP JUMPDEST PUSH2 0x7EF JUMP JUMPDEST SWAP1 POP DUP3 DUP2 MSTORE PUSH1 0x20 DUP2 ADD DUP5 DUP5 DUP5 ADD GT ISZERO PUSH2 0x875 JUMPI PUSH2 0x874 PUSH2 0x78D JUMP JUMPDEST JUMPDEST PUSH2 0x880 DUP5 DUP3 DUP6 PUSH2 0x839 JUMP JUMPDEST POP SWAP4 SWAP3 POP POP POP JUMP JUMPDEST PUSH0 DUP3 PUSH1 0x1F DUP4 ADD SLT PUSH2 0x89C JUMPI PUSH2 0x89B PUSH2 0x789 JUMP JUMPDEST JUMPDEST DUP2 CALLDATALOAD PUSH2 0x8AC DUP5 DUP3 PUSH1 0x20 DUP7 ADD PUSH2 0x847 JUMP JUMPDEST SWAP2 POP POP SWAP3 SWAP2 POP POP JUMP JUMPDEST PUSH0 PUSH1 0x20 DUP3 DUP5 SUB SLT ISZERO PUSH2 0x8CA JUMPI PUSH2 0x8C9 PUSH2 0x609 JUMP JUMPDEST JUMPDEST PUSH0 DUP3 ADD CALLDATALOAD PUSH8 0xFFFFFFFFFFFFFFFF DUP2 GT ISZERO PUSH2 0x8E7 JUMPI PUSH2 0x8E6 PUSH2 0x60D JUMP JUMPDEST JUMPDEST PUSH2 0x8F3 DUP5 DUP3 DUP6 ADD PUSH2 0x888 JUMP JUMPDEST SWAP2 POP POP SWAP3 SWAP2 POP POP JUMP JUMPDEST PUSH0 PUSH2 0xFFFF DUP3 AND SWAP1 POP SWAP2 SWAP1 POP JUMP JUMPDEST PUSH2 0x912 DUP2 PUSH2 0x8FC JUMP JUMPDEST DUP2 EQ PUSH2 0x91C JUMPI PUSH0 PUSH0 REVERT JUMPDEST POP JUMP JUMPDEST PUSH0 DUP2 CALLDATALOAD SWAP1 POP PUSH2 0x92D DUP2 PUSH2 0x909 JUMP JUMPDEST SWAP3 SWAP2 POP POP JUMP JUMPDEST PUSH0 PUSH1 0x20 DUP3 DUP5 SUB SLT ISZERO PUSH2 0x948 JUMPI PUSH2 0x947 PUSH2 0x609 JUMP JUMPDEST JUMPDEST PUSH0 PUSH2 0x955 DUP5 DUP3 DUP6 ADD PUSH2 0x91F JUMP JUMPDEST SWAP2 POP POP SWAP3 SWAP2 POP POP JUMP JUMPDEST PUSH2 0x967 DUP2 PUSH2 0x8FC JUMP JUMPDEST DUP3 MSTORE POP POP JUMP JUMPDEST PUSH0 PUSH1 0x20 DUP3 ADD SWAP1 POP PUSH2 0x980 PUSH0 DUP4 ADD DUP5 PUSH2 0x95E JUMP JUMPDEST SWAP3 SWAP2 POP POP JUMP JUMPDEST PUSH2 0x98F DUP2 PUSH2 0x630 JUMP JUMPDEST DUP3 MSTORE POP POP JUMP JUMPDEST PUSH0 PUSH1 0x20 DUP3 ADD SWAP1 POP PUSH2 0x9A8 PUSH0 DUP4 ADD DUP5 PUSH2 0x986 JUMP JUMPDEST SWAP3 SWAP2 POP POP JUMP JUMPDEST PUSH0 PUSH1 0x20 DUP3 DUP5 SUB SLT ISZERO PUSH2 0x9C3 JUMPI PUSH2 0x9C2 PUSH2 0x609 JUMP JUMPDEST JUMPDEST PUSH0 PUSH2 0x9D0 DUP5 DUP3 DUP6 ADD PUSH2 0x657 JUMP JUMPDEST SWAP2 POP POP SWAP3 SWAP2 POP POP JUMP JUMPDEST PUSH0 PUSH1 0x20 DUP3 ADD SWAP1 POP PUSH2 0x9EC PUSH0 DUP4 ADD DUP5 PUSH2 0x74C JUMP JUMPDEST SWAP3 SWAP2 POP POP JUMP JUMPDEST PUSH32 0x4E487B7100000000000000000000000000000000000000000000000000000000 PUSH0 MSTORE PUSH1 0x22 PUSH1 0x4 MSTORE PUSH1 0x24 PUSH0 REVERT JUMPDEST PUSH0 PUSH1 0x2 DUP3 DIV SWAP1 POP PUSH1 0x1 DUP3 AND DUP1 PUSH2 0xA36 JUMPI PUSH1 0x7F DUP3 AND SWAP2 POP JUMPDEST PUSH1 0x20 DUP3 LT DUP2 SUB PUSH2 0xA49 JUMPI PUSH2 0xA48 PUSH2 0x9F2 JUMP JUMPDEST JUMPDEST POP SWAP2 SWAP1 POP JUMP JUMPDEST PUSH32 0x547765657420746F6F206C6F6E67210000000000000000000000000000000000 PUSH0 DUP3 ADD MSTORE POP JUMP JUMPDEST PUSH0 PUSH2 0xA83 PUSH1 0xF DUP4 PUSH2 0x6E6 JUMP JUMPDEST SWAP2 POP PUSH2 0xA8E DUP3 PUSH2 0xA4F JUMP JUMPDEST PUSH1 0x20 DUP3 ADD SWAP1 POP SWAP2 SWAP1 POP JUMP JUMPDEST PUSH0 PUSH1 0x20 DUP3 ADD SWAP1 POP DUP2 DUP2 SUB PUSH0 DUP4 ADD MSTORE PUSH2 0xAB0 DUP2 PUSH2 0xA77 JUMP JUMPDEST SWAP1 POP SWAP2 SWAP1 POP JUMP JUMPDEST PUSH0 DUP2 SWAP1 POP DUP2 PUSH0 MSTORE PUSH1 0x20 PUSH0 KECCAK256 SWAP1 POP SWAP2 SWAP1 POP JUMP JUMPDEST PUSH0 PUSH1 0x20 PUSH1 0x1F DUP4 ADD DIV SWAP1 POP SWAP2 SWAP1 POP JUMP JUMPDEST PUSH0 DUP3 DUP3 SHL SWAP1 POP SWAP3 SWAP2 POP POP JUMP JUMPDEST PUSH0 PUSH1 0x8 DUP4 MUL PUSH2 0xB13 PUSH32 0xFFFFFFFFFFFFFFFFFFFFFFFFFFFFFFFFFFFFFFFFFFFFFFFFFFFFFFFFFFFFFFFF DUP3 PUSH2 0xAD8 JUMP JUMPDEST PUSH2 0xB1D DUP7 DUP4 PUSH2 0xAD8 JUMP JUMPDEST SWAP6 POP DUP1 NOT DUP5 AND SWAP4 POP DUP1 DUP7 AND DUP5 OR SWAP3 POP POP POP SWAP4 SWAP3 POP POP POP JUMP JUMPDEST PUSH0 DUP2 SWAP1 POP SWAP2 SWAP1 POP JUMP JUMPDEST PUSH0 PUSH2 0xB58 PUSH2 0xB53 PUSH2 0xB4E DUP5 PUSH2 0x66B JUMP JUMPDEST PUSH2 0xB35 JUMP JUMPDEST PUSH2 0x66B JUMP JUMPDEST SWAP1 POP SWAP2 SWAP1 POP JUMP JUMPDEST PUSH0 DUP2 SWAP1 POP SWAP2 SWAP1 POP JUMP JUMPDEST PUSH2 0xB71 DUP4 PUSH2 0xB3E JUMP JUMPDEST PUSH2 0xB85 PUSH2 0xB7D DUP3 PUSH2 0xB5F JUMP JUMPDEST DUP5 DUP5 SLOAD PUSH2 0xAE4 JUMP JUMPDEST DUP3 SSTORE POP POP POP POP JUMP JUMPDEST PUSH0 PUSH0 SWAP1 POP SWAP1 JUMP JUMPDEST PUSH2 0xB9C PUSH2 0xB8D JUMP JUMPDEST PUSH2 0xBA7 DUP2 DUP5 DUP5 PUSH2 0xB68 JUMP JUMPDEST POP POP POP JUMP JUMPDEST JUMPDEST DUP2 DUP2 LT ISZERO PUSH2 0xBCA JUMPI PUSH2 0xBBF PUSH0 DUP3 PUSH2 0xB94 JUMP JUMPDEST PUSH1 0x1 DUP2 ADD SWAP1 POP PUSH2 0xBAD JUMP JUMPDEST POP POP JUMP JUMPDEST PUSH1 0x1F DUP3 GT ISZERO PUSH2 0xC0F JUMPI PUSH2 0xBE0 DUP2 PUSH2 0xAB7 JUMP JUMPDEST PUSH2 0xBE9 DUP5 PUSH2 0xAC9 JUMP JUMPDEST DUP2 ADD PUSH1 0x20 DUP6 LT ISZERO PUSH2 0xBF8 JUMPI DUP2 SWAP1 POP JUMPDEST PUSH2 0xC0C PUSH2 0xC04 DUP6 PUSH2 0xAC9 JUMP JUMPDEST DUP4 ADD DUP3 PUSH2 0xBAC JUMP JUMPDEST POP POP JUMPDEST POP POP POP JUMP JUMPDEST PUSH0 DUP3 DUP3 SHR SWAP1 POP SWAP3 SWAP2 POP POP JUMP JUMPDEST PUSH0 PUSH2 0xC2F PUSH0 NOT DUP5 PUSH1 0x8 MUL PUSH2 0xC14 JUMP JUMPDEST NOT DUP1 DUP4 AND SWAP2 POP POP SWAP3 SWAP2 POP POP JUMP JUMPDEST PUSH0 PUSH2 0xC47 DUP4 DUP4 PUSH2 0xC20 JUMP JUMPDEST SWAP2 POP DUP3 PUSH1 0x2 MUL DUP3 OR SWAP1 POP SWAP3 SWAP2 POP POP JUMP JUMPDEST PUSH2 0xC60 DUP3 PUSH2 0x6DC JUMP JUMPDEST PUSH8 0xFFFFFFFFFFFFFFFF DUP2 GT ISZERO PUSH2 0xC79 JUMPI PUSH2 0xC78 PUSH2 0x791 JUMP JUMPDEST JUMPDEST PUSH2 0xC83 DUP3 SLOAD PUSH2 0xA1F JUMP JUMPDEST PUSH2 0xC8E DUP3 DUP3 DUP6 PUSH2 0xBCE JUMP JUMPDEST PUSH0 PUSH1 0x20 SWAP1 POP PUSH1 0x1F DUP4 GT PUSH1 0x1 DUP2 EQ PUSH2 0xCBF JUMPI PUSH0 DUP5 ISZERO PUSH2 0xCAD JUMPI DUP3 DUP8 ADD MLOAD SWAP1 POP JUMPDEST PUSH2 0xCB7 DUP6 DUP3 PUSH2 0xC3C JUMP JUMPDEST DUP7 SSTORE POP PUSH2 0xD1E JUMP JUMPDEST PUSH1 0x1F NOT DUP5 AND PUSH2 0xCCD DUP7 PUSH2 0xAB7 JUMP JUMPDEST PUSH0 JUMPDEST DUP3 DUP2 LT ISZERO PUSH2 0xCF4 JUMPI DUP5 DUP10 ADD MLOAD DUP3 SSTORE PUSH1 0x1 DUP3 ADD SWAP2 POP PUSH1 0x20 DUP6 ADD SWAP5 POP PUSH1 0x20 DUP2 ADD SWAP1 POP PUSH2 0xCCF JUMP JUMPDEST DUP7 DUP4 LT ISZERO PUSH2 0xD11 JUMPI DUP5 DUP10 ADD MLOAD PUSH2 0xD0D PUSH1 0x1F DUP10 AND DUP3 PUSH2 0xC20 JUMP JUMPDEST DUP4 SSTORE POP JUMPDEST PUSH1 0x1 PUSH1 0x2 DUP9 MUL ADD DUP9 SSTORE POP POP POP JUMPDEST POP POP POP POP POP POP JUMP JUMPDEST PUSH32 0x496E76616C696420747765657420696E64657821000000000000000000000000 PUSH0 DUP3 ADD MSTORE POP JUMP JUMPDEST PUSH0 PUSH2 0xD5A PUSH1 0x14 DUP4 PUSH2 0x6E6 JUMP JUMPDEST SWAP2 POP PUSH2 0xD65 DUP3 PUSH2 0xD26 JUMP JUMPDEST PUSH1 0x20 DUP3 ADD SWAP1 POP SWAP2 SWAP1 POP JUMP JUMPDEST PUSH0 PUSH1 0x20 DUP3 ADD SWAP1 POP DUP2 DUP2 SUB PUSH0 DUP4 ADD MSTORE PUSH2 0xD87 DUP2 PUSH2 0xD4E JUMP JUMPDEST SWAP1 POP SWAP2 SWAP1 POP JUMP JUMPDEST PUSH32 0x4E487B7100000000000000000000000000000000000000000000000000000000 PUSH0 MSTORE PUSH1 0x32 PUSH1 0x4 MSTORE PUSH1 0x24 PUSH0 REVERT JUMPDEST PUSH32 0x594F5520415245204E4F5420544845204F574E45522100000000000000000000 PUSH0 DUP3 ADD MSTORE POP JUMP JUMPDEST PUSH0 PUSH2 0xDEF PUSH1 0x16 DUP4 PUSH2 0x6E6 JUMP JUMPDEST SWAP2 POP PUSH2 0xDFA DUP3 PUSH2 0xDBB JUMP JUMPDEST PUSH1 0x20 DUP3 ADD SWAP1 POP SWAP2 SWAP1 POP JUMP JUMPDEST PUSH0 PUSH1 0x20 DUP3 ADD SWAP1 POP DUP2 DUP2 SUB PUSH0 DUP4 ADD MSTORE PUSH2 0xE1C DUP2 PUSH2 0xDE3 JUMP JUMPDEST SWAP1 POP SWAP2 SWAP1 POP JUMP INVALID LOG2 PUSH5 0x6970667358 0x22 SLT KECCAK256 0x2F 0x4D 0x27 CHAINID 0xBE SIGNEXTEND 0xC2 CALLDATASIZE EXTCODEHASH RJUMPI 0xBD1D SSTORE SWAP2 TIMESTAMP 0xA5 ADDRESS 0xCA PUSH27 0x3EFE7FC0D20266CB90DAC2FA9164736F6C634300081E0033000000 "
		},
		"gasEstimates": {
			"creation": {
				"codeDepositCost": "734600",
				"executionCost": "49346",
				"totalCost": "783946"
			},
			"external": {
				"MAX_TWEET_LENGTH()": "2539",
				"changeTweetLength(uint16)": "26893",
				"getTweet(address,uint256)": "infinite",
				"getTweetCount(address)": "2902",
				"owner()": "2552",
				"postTweet(string)": "infinite",
				"tweets(address,uint256)": "infinite"
			}
		},
		"methodIdentifiers": {
			"MAX_TWEET_LENGTH()": "6eb10797",
			"changeTweetLength(uint16)": "58bfa4ab",
			"getTweet(address,uint256)": "112f54e3",
			"getTweetCount(address)": "9d054b1c",
			"owner()": "8da5cb5b",
			"postTweet(string)": "0cbc3dc4",
			"tweets(address,uint256)": "05a1b4a9"
		}
	},
	"abi": [
		{
			"inputs": [],
			"stateMutability": "nonpayable",
			"type": "constructor"
		},
		{
			"inputs": [],
			"name": "MAX_TWEET_LENGTH",
			"outputs": [
				{
					"internalType": "uint16",
					"name": "",
					"type": "uint16"
				}
			],
			"stateMutability": "view",
			"type": "function"
		},
		{
			"inputs": [
				{
					"internalType": "uint16",
					"name": "newTweetLength",
					"type": "uint16"
				}
			],
			"name": "changeTweetLength",
			"outputs": [],
			"stateMutability": "nonpayable",
			"type": "function"
		},
		{
			"inputs": [
				{
					"internalType": "address",
					"name": "user",
					"type": "address"
				},
				{
					"internalType": "uint256",
					"name": "index",
					"type": "uint256"
				}
			],
			"name": "getTweet",
			"outputs": [
				{
					"internalType": "string",
					"name": "",
					"type": "string"
				},
				{
					"internalType": "uint256",
					"name": "",
					"type": "uint256"
				}
			],
			"stateMutability": "view",
			"type": "function"
		},
		{
			"inputs": [
				{
					"internalType": "address",
					"name": "user",
					"type": "address"
				}
			],
			"name": "getTweetCount",
			"outputs": [
				{
					"internalType": "uint256",
					"name": "",
					"type": "uint256"
				}
			],
			"stateMutability": "view",
			"type": "function"
		},
		{
			"inputs": [],
			"name": "owner",
			"outputs": [
				{
					"internalType": "address",
					"name": "",
					"type": "address"
				}
			],
			"stateMutability": "view",
			"type": "function"
		},
		{
			"inputs": [
				{
					"internalType": "string",
					"name": "_content",
					"type": "string"
				}
			],
			"name": "postTweet",
			"outputs": [],
			"stateMutability": "nonpayable",
			"type": "function"
		},
		{
			"inputs": [
				{
					"internalType": "address",
					"name": "",
					"type": "address"
				},
				{
					"internalType": "uint256",
					"name": "",
					"type": "uint256"
				}
			],
			"name": "tweets",
			"outputs": [
				{
					"internalType": "string",
					"name": "content",
					"type": "string"
				},
				{
					"internalType": "uint256",
					"name": "timestamp",
					"type": "uint256"
				}
			],
			"stateMutability": "view",
			"type": "function"
		}
	]
}